:020000040800F2
:1028000000500020F147000835480008354800080E
:102810003548000835480008354800080000000029
:102820000000000000000000000000003548000823
:102830003548000800000000354800083548000809
:102840003548000835480008354800083548000874
:102850003548000835480008354800083548000864
:102860003548000835480008354800083548000854
:102870003548000835480008354800083548000844
:102880003548000835480008354800083548000834
:102890003548000835480008354800083548000824
:1028A0003548000835480008354800083548000814
:1028B0003548000835480008354800083548000804
:1028C00035480008354800083548000835480008F4
:1028D00035480008452A00088D29000835480008B9
:1028E0003548000835480008354800080000000059
:1028F00000000000000000000000000000000000D8
:0C29000000000000000000005FF808F17B
:10290C00034613F8012B002AFBD1181A0138704723
:10291C0010B5054C237833B9044B13B10448AFF30D
:10292C0000800123237010BDE8000020000000008F
:10293C00CC48000808B5034B1BB103490348AFF35F
:10294C00008008BD00000000EC000020CC4800080E
:10295C00044BF02283F82520A3F5407320225A6003
:10296C00704700BF00E400E0044BF02283F82620FF
:10297C00A3F5407340225A60704700BF00E400E0AA
:10298C0008B52A4B1B681A6812F0800F03D0DB685D
:10299C0013F0800F16D1254B1B681A6812F0200F0C
:1029AC000FD0DA6812F0200F0BD05868C0B25A283A
:1029BC000BD01F4B1B78012B11D01E4B1B78012BFE
:1029CC0020D808BD01F052F8E5E71A4B1B78002B14
:1029DC00EFD10123164A1370164A1370F1E7A5289C
:1029EC0006D0144B00221A70114B00221A70E8E723
:1029FC00104B02221A705A2001F070F8A52001F039
:102A0C006DF8F1E701F06AF80A4A13780133DBB28A
:102A1C0013700E2BD5D101F0BDF80130C0B201F00E
:102A2C00B3F8044B00221A70CBE700BF98000020CB
:102A3C00040100200501002008B50E4B1B681A6824
:102A4C0012F0800F03D0DB6813F0800F0AD1094B12
:102A5C001B681A6812F0200F03D0DA6812F0200FEE
:102A6C0003D108BD00F0DAFFF1E75868C0B201F0FD
:102A7C0025F8F6E79C000020002302E0013001332A
:102A8C00DBB28B4205D20278202AF7D100220270E9
:102A9C00F4E77047084B1A68136943F0010313619C
:102AAC00D36813F0010FFBD10180034B1A68136933
:102ABC0023F001031361704780000020F8B507462E
:102ACC000E46154600240AE0630856F82310090C3C
:102ADC0007EB4000FFF7DEFF15E00134A4B22046FF
:102AEC00B4EB450F17DA0C4B1B68DB6813F0010FC6
:102AFC00F9D114F0010FE7D1630836F8231007EB76
:102B0C004000FFF7C7FF044B1B681A6912F0040F53
:102B1C00E3D11B69E1E7F8BD8000002008B5002374
:102B2C001A460249082000F00FFF08BDE4480008CF
:102B3C0008B500231A460249082000F005FF08BD1D
:102B4C0010490008F8B500231A462349082000F064
:102B5C00FBFE00272BE0214B53F82630023553F8AF
:102B6C00251000231A460968082000F0EDFE0134F8
:102B7C00E4B200231A461A49082000F0E5FE174B70
:102B8C0053F826302546A21C53F8223043B1002CB2
:102B9C00E1D100231A461349082000F0D5FEDAE7EC
:102BAC000137FFB21A461049082000F0CDFE3E4610
:102BBC000A4B53F8271069B100231A4609680820FC
:102BCC0000F0C2FE00231A460549082000F0BCFEA6
:102BDC000024D4E7F8BD00BF50490008A44D0008FC
:102BEC006C4900087449000884490008F0B583B0AA
:102BFC0006460D460024019439E003F108026A44AC
:102C0C0012F8042CC3F10301C9008A4010430133AC
:102C1C00032BF2DD00F16043B3F5A04F0ED9B0F5F4
:102C2C00803F0BD300F17843B3F5803F06D30023EC
:102C3C001A461A49082000F087FE16E000680022A8
:102C4C000AE0C2F10303DB0020FA03F302F10801EE
:102C5C00694401F8043C0132032AF2DD04230DEB34
:102C6C0003020F49082000F06FFE0134E4B2B442B5
:102C7C0012D255F8243000271F7201A955F82400F0
:102C8C0000F03CFF04230DEB03020649082000F082
:102C9C005BFE3B463846BBE703B0F0BD9C490008E1
:102CAC00944900088849000800B583B00B460A68AF
:102CBC000021D1700DF10701186800F01FFF9DF87D
:102CCC00070000F06DFF03B05DF804FB00B583B0A6
:102CDC000B460A680021D1700DF10701186800F04D
:102CEC000DFF9DF8070000F043FF03B05DF804FBF7
:102CFC0030B583B00D4600240094019409E0286897
:102D0C0004EB44030DEB0401184400F0F7FE01340E
:102D1C00E4B2072CF3D9684601F0F8F903B030BDE2
:102D2C002DE9F04F85B007460D460024019402941E
:102D3C000394FFF7A1FE2E4603E00134E4B2013EFA
:102D4C00F6B207EB040A3B5DB3FA83F35B09AC42C2
:102D5C0028BF0023002BF0D1002E3BD04FF00008F1
:102D6C00354B53F82890B9F1000F30D0D9F800B09A
:102D7C005846FFF7C5FD054602465946504601F038
:102D8C0054FD20B108F101085FFA88F8E8E76319EF
:102D9C00DBB2002401E00133DBB2721E934210DA85
:102DAC00FA5C002AF7D15A1CB918BA5C002AF2D086
:102DBC0004AA02EB840242F80C1C0134E4B2032C8A
:102DCC00E9D11CBBD9F8043001A920469847B8F1C9
:102DDC00050F1DD005B0BDE8F08F0135EDB2AB1C71
:102DEC0059F82360002EEDD0D6F800A05046FFF71E
:102DFC0087FD02460199504601F017FD0028ECD1E1
:102E0C007368601E02A9C0B29847E0E70025E6E7A8
:102E1C0000231A460949042000F096FD00231A46A7
:102E2C003946042000F090FD00231A460449042082
:102E3C0000F08AFDCEE700BFA44D0008E44900086D
:102E4C008449000830B90B4B1A68136943F08003AE
:102E5C0013617047012800D07047064B1A68064B67
:102E6C00536003F188335360136913F0800FFBD167
:102E7C00F2E700BF800000202301674510B582B047
:102E8C0000F47C4444F0006408238DF804304FF4C3
:102E9C0000638DF80530230A8DF806308DF8074055
:102EAC0004230DEB03021049082000F04DFD0F4BDD
:102EBC001A68136943F0020313615461136943F0F8
:102ECC0040031361FF20D36813F0200F04D10138A5
:102EDC0010F0FF00F7D104E0136923F00203136133
:102EEC00012002B010BD00BFF8490008800000208E
:102EFC00B0F5803F06D300F17840B0F5803F03D2A7
:102F0C000120704701207047002070472DE9F041E7
:102F1C00C2B0032804D180460E460125002717E0D5
:102F2C0000231A462C49082000F00EFD42B0BDE8E3
:102F3C00F0810133032B09DC01AAD25C012DF8D1FD
:102F4C00C3F10301C9008A401743F2E70135EDB222
:102F5C0045450AD256F8253000241C7201A956F8B2
:102F6C00250000F0CBFD2346E4E727F003073846A5
:102F7C00FFF7BEFF012806D000231A461749082088
:102F8C0000F0E2FCD2E70120FFF75CFF3846FFF7C8
:102F9C0075FF012807D14FF48072002102A801F0BF
:102FAC0054FC00230FE000231A460D49082000F0C2
:102FBC00CBFC0020FFF746FFB8E70A4A1A4402A9E7
:102FCC0041F8232001333F2BF7DD402202A938467C
:102FDC00FFF774FDAAE700BF144A0008304A000846
:102FEC00504A000800563412034B1A68136843F019
:102FFC0040031360704700BF8C000020002306E0E4
:10300C00064A126850F823C0C2F800C001338B4244
:10301C00F6D3024B1B681868704700BF880000206D
:10302C00034B1A68136843F001031360704700BF29
:10303C008400002000B583B000F03CF8012822D0B9
:10304C0000231A461749012000F07EFC00231A4683
:10305C001549012000F078FCFFF7C6FF00F058F985
:10306C0000F020FE00238DF8073000F093FD80B9AE
:10307C000DF1070000F0C4FC0028F6D09DF8070005
:10308C0000F072F9F1E700F09DF8084B084A1A605D
:10309C00DCE700F0D9FE00F07DFD0138C0B200F095
:1030AC0073FDE5E7A44A0008D84A00089000002008
:1030BC0000A24A04414B1A68136843F4803313602E
:1030CC0000234FF6FF72934208D03C4A12681268F4
:1030DC0012F4003F02D101339BB2F2E7FF2B63D015
:1030EC00364B1B685A6812F0080F5FD11A6822F031
:1030FC0080721A6000234FF6FF72934208D02F4A59
:10310C001268126812F0007F02D001339BB2F2E712
:10311C00FF2B4DD0294B1B685A6802F400325A60C1
:10312C005A6842F480325A605A6842F4E01242F013
:10313C0004025A601A6842F080721A60002301E09F
:10314C0001339BB24FF6FF72934205D01B4A1268B3
:10315C00126812F0007FF3D0FF2B2BD0184B19689C
:10316C000A6842F010020A6019680A6822F0070225
:10317C000A601A68136843F0020313600F4B196856
:10318C004B6843F002034B6000234FF6FF729342EF
:10319C0006D04A6812F0080F02D101339BB2F4E753
:1031AC00FF2B09D00120704700207047002070478A
:1031BC0000207047002070470020704794000020CA
:1031CC0080000020094B1B685A6822F0F0025A60FC
:1031DC005A6822F4E0625A605A6842F480625A607B
:1031EC005A6822F460525A60704700BF9400002065
:1031FC0070B596B005460D268DF8046000248DF848
:10320C0005402346224601A9082000F09DFB5022D0
:10321C00202101A801F019FB2346224601A9082010
:10322C0000F092FB8DF804608DF805402346224691
:10323C0001A9082000F088FB2346224605490820F6
:10324C0000F082FB234622462946082000F07CFB36
:10325C0016B070BD004B000870B5044690F85130A4
:10326C004BB390F85550042D2AD845B105EB850188
:10327C0000EB01115022063101F0D7FAD8B101351B
:10328C0005EB850504EB051050220021063001F0FA
:10329C00DCFA94F85500013000EB800004EB0010D0
:1032AC0094F851202146063001F0FCFA94F8553080
:1032BC00013384F8553094F8553084F8543070BD8F
:1032CC0000F5CB755022294601F0AFFA0028F2D058
:1032DC000026032E10DC711C01EB810004EB0010A6
:1032EC000E46013101EB810104EB01115022063134
:1032FC00063001F0D7FAECE750263246002128467A
:10330C0001F0A3FA32462146284601F0CBFAD2E767
:10331C0038B5124D002485F8524085F8514085F897
:10332C00544085F8554085F8534051222146284693
:10333C0001F08BFA4FF4C872214605F1560001F0EA
:10334C0084FA234622460649082000F0FDFA23465B
:10335C0022460449082000F0F7FA38BD0801002085
:10336C00084B0008004B00082DE9F04397B000AF64
:10337C000023A7F854301B2840D00446C24B93F8C6
:10338C005330012B42D0022B4CD00D2C00F0C780B7
:10339C000A2C00F0C4807F2C00F0E080082C00F098
:1033AC00DD80B94B93F8526093F851904E4580F004
:1033BC005E816D4698464A461946381D01F072FAF0
:1033CC00701CA9EB06023B1D9919404401F06AFAE6
:1033DC0098F8521008F8014000231A46414408207E
:1033EC0000F0B2FA98F8512098F85230D21A0832FC
:1033FC0022F00702ADEB020D6C4605E1A24B012257
:10340C0083F853205C37BD46BDE8F0835B2804D0BD
:10341C009D4B002283F85320B7E79B4B022283F885
:10342C005320EFE7984B002283F85320A0F141047E
:10343C00032CE7D8DFE804F002274A60924B93F89C
:10344C00543023B9904B002283F85420DAE7013B27
:10345C00DBB28D4D85F85430013303EB830305EB60
:10346C000314063450222146284601F01BFA20464C
:10347C00FFF746FAC3B285F8513085F8523028462A
:10348C00FFF7B6FEBEE7804A92F8543092F855200A
:10349C00013A9342B6DA0133DBB27B4C84F85430F8
:1034AC00013303EB830304EB031150220631204656
:1034BC0001F0F8F92046FFF723FAC3B284F8513033
:1034CC0084F852302046FFF793FE9BE76E4B93F83F
:1034DC00522093F851309A4294D26B4CA35C3B71BE
:1034EC0000231A46391D082000F02EFA94F85230A9
:1034FC00013384F8523085E7634B93F85230002B3C
:10350C0080D00820B88000231A46391D00F01CFA20
:10351C005D4A92F85230013B82F8523072E7002338
:10352C001A465A49082000F00FFA574C2046FFF76C
:10353C0093FE94F851102046FFF7F2FB00231A4635
:10354C005349082000F000FA002184F8521084F846
:10355C0051105122204601F078F953E74A4B93F869
:10356C005230002B3FF44EAF581EC0B2464981F882
:10357C00520091F85140621ED2B281F85120A34200
:10358C0026D0414C411C121A2144204401F08AF9E6
:10359C0094F851300025E55408263E712B462A46F6
:1035AC00391D304600F0D0F994F852102B462A46BB
:1035BC002144304600F0C8F920233B712B462A46A3
:1035CC00391D304600F0C0F93E7194F8524012E0BB
:1035DC0000231A462F49082000F0B6F92A4B93F81D
:1035EC005120002199540DE700231A46391D08205B
:1035FC0000F0AAF90134244B93F85130A342F3DACA
:10360C0000E70822E25401331F4A92F851209A42F3
:10361C00F7DC1D4E96F85230D21A0821204601F0E4
:10362C0014F996F8513096F852209B1A0022E25465
:10363C0013462146082000F087F9AD46124A92F84D
:10364C0051300133DBB282F8513092F85210013113
:10365C0082F852104F2B7FF6D5AE1046002182F81F
:10366C00521082F85110502201F0EFF8CAE6064BC6
:10367C009C5587F8544000231A4607F15401082042
:10368C0000F062F9DAE700BF080100208449000865
:10369C00004B0008184B0008012380F80F3803700A
:1036AC000023A0F80234A0F804344FF48063A0F88F
:1036BC0006340A4B98420CD00F2380F80E380023A6
:1036CC00A0F80838A0F80A384FF48063A0F80C383A
:1036DC007047002380F80E38F1E700BFF00200209D
:1036EC0010B5324803689A6942F480429A619A692B
:1036FC0042F004029A612E4BD3F8042822F0F00217
:10370C00C3F80428D3F8042842F0B002C3F8042804
:10371C00D3F8042822F47062C3F80428D3F80428E0
:10372C0042F48062C3F80428224C2168CB6823F44D
:10373C00985323F00C03CB60CB6843F00C03CB60A5
:10374C000B6923F440530B614B6923F006034B6167
:10375C0003685A68C2F3C222174B1B681748825C75
:10376C00D34003EB830303EB83035A0B1448A0FBF6
:10377C000220144AA2FB0323642200FB02F2C2EBD8
:10378C0093431B013233104AA2FB0323000100EBCD
:10379C0053108860FFF7DCF82368DA6842F02002E7
:1037AC00DA60DA6842F40052DA6010BD940000204E
:1037BC00000001409C00002090000020A000002090
:1037CC009FA60B00C5B3A2911F85EB512D230B7047
:1037DC00002305E0020909E037320133CA54DBB299
:1037EC00012B07D8002BF5D000F00F02092AF3D8D3
:1037FC003032F2E770472DE9F84304460F46904605
:10380C00B0F80054B0F80464731E9D4228D06A1CB2
:10381C00B4F802349A4245D09D4227D9721B92B219
:10382C0013449BB2434502D8013B1FFA83F8A6EB25
:10383C0005091FFA89F9C8451FD94A463946601946
:10384C0001F030F8A8EB090207EB0901204601F062
:10385C0029F8AE1B4644A4F800640020BDE8F883A8
:10386C00B0F80234002BD2D10320F7E79D4202D0EE
:10387C005B1B9BB2D6E73346D4E742463946601908
:10388C0001F010F8B4F8003443449BB2A4F80034AF
:10389C00B4F80424934201D00020DFE70020A4F800
:1038AC000004DBE70320D9E72DE9F843B0F8003436
:1038BC00B0F80264B34243D005460F462AD2B0F8A2
:1038CC000414891B89B25C18A4B2B5F80494A9EB52
:1038DC0006081FFA88F8944228BF1446A0451CD24B
:1038EC004246A919384600F0DDFFA4EB0802294630
:1038FC0007EB080000F0D6FFA6EB09094C44A5F82D
:10390C000244B5F80024B5F802349A421AD00020CB
:10391C00BDE8F8839C1BA4B2D7E72246A919384608
:10392C0000F0C0FFB5F8023423449BB2A5F8023472
:10393C00B5F804249342E4D10023A5F80234E0E75F
:10394C000220E5E70120E3E7F0B583B007460C461B
:10395C0015461E46264B93F80F38A3B1244B93F80B
:10396C000E383B4236D03CB12046FEF7C9FF82B23E
:10397C0021462048FFF73FFF3DB30024ADF804403B
:10398C008DF806400DE0FFF7ABFE1948FFF784FEFB
:10399C00E4E702220DF105011648FFF72CFF013474
:1039AC00E4B2B4420CD201A915F8010BFFF70EFFDB
:1039BC00002CEED0032201A90E48FFF71CFFEEE706
:1039CC0004220D490B48FFF716FF094B1B78DBB29D
:1039DC00012B02D0002003B0F0BD054B02221A705F
:1039EC00064B1A68D36843F08003D360F2E700BF3C
:1039FC00000B0020020B0020844900089C000020D2
:103A0C0008B5014601220448FFF74EFF022801D0F9
:103A1C00012008BD0020FCE7080F002000B583B092
:103A2C0000238DF8073001220DF107010C48FFF738
:103A3C003BFF012807D00B4B1B689DF807205A60F1
:103A4C0003B05DF804FB084B01221A70054B1B6890
:103A5C009DF807205A60DA6822F08002DA60EFE7FE
:103A6C00020B00209C000020000B002000B583B04E
:103A7C0000238DF8073001220DF107010C48FFF7E8
:103A8C0013FF012807D00B4B1B689DF807205A60C9
:103A9C0003B05DF804FB084B01221A70054B1B6840
:103AAC009DF807205A60DA6822F08002DA60EFE7AE
:103ABC00F202002098000020F002002000B583B034
:103ACC008DF8070001220DF107010348FFF793FE63
:103ADC0003B05DF804FB00BF080F002000B583B0F5
:103AEC008DF8070001220DF107010348FFF783FE53
:103AFC0003B05DF804FB00BFF806002010B40023EF
:103B0C000B70012412E0A3F14102D2B2052A1DD898
:103B1C000A78373B4FEA840C03FA0CF313430B700F
:103B2C0001300CBB002301F8013F01240378EBB1F9
:103B3C00A3F13002D2B2092AE5D80A78303B4FEA19
:103B4C00840C03FA0CF313430B70E9E7A3F1610245
:103B5C00D2B2052AE4D80A78573B4FEA840C03FA10
:103B6C000CF313430B70DBE70024DFE710BC70474A
:103B7C00082805D8034A92F80E38034382F80E3809
:103B8C00704700BF000B0020014B83F80E087047F4
:103B9C00F0020020014B93F80E087047F002002051
:103BAC00082806D8034A92F80E3823EA000382F854
:103BBC000E387047000B002010B532490A68936923
:103BCC0043F004039361304BD3F8002822F4706265
:103BDC00C3F80028D3F8002842F43062C3F8002858
:103BEC00D3F8002822F47042C3F80028D3F8002838
:103BFC0042F48042C3F800280A68D36943F40033C6
:103C0C00D361224C2168CB6823F4985323F00C0326
:103C1C00CB60CB6843F00C03CB600B6923F44053AF
:103C2C000B614B6923F006034B615268C2F302220D
:103C3C00174B1B681748825CD34003EB830303EBE1
:103C4C0083035A0B1448A0FB0220144AA2FB032343
:103C5C00642200FB02F2C2EB93431B013233104A85
:103C6C00A2FB0323000100EB53108860FEF77CFEDF
:103C7C002368DA6842F02002DA60DA6842F4005213
:103C8C00DA6010BD94000020000001409800002074
:103C9C0090000020A00000209FA60B00C5B3A291AD
:103CAC001F85EB5110B5054C012384F80F38FFF735
:103CBC0083FF2046FFF7F0FC10BD00BFF002002090
:103CCC00030E0B70030C4B70030A8B70C87070479B
:103CDC0000230B6003781B060B60427843EA024317
:103CEC000B60827843EA02230B60C27813430B60AB
:103CFC00704700002DE9F0418AB0064688460B4615
:103D0C0002464C490220FFF71FFE0023069307933F
:103D1C000893ADF824304AF25A52ADF814200093AF
:103D2C0001934FEAD807444B93F80F380BB100249A
:103D3C0034E0FFF741FF4048FFF7AEFCF7E7E50042
:103D4C0003A906EBC400FFF7C3FF281D04A93044E8
:103D5C00FFF7BEFFFFF764F9022103A8FFF74EF946
:103D6C0002A9FFF7ADFFBDF81430ADF818303319C8
:103D7C0032595B68CDF81A20CDF81E30029ACDF876
:103D8C0022200E2206A92D48FFF735FD0E2306AA88
:103D9C002B490220FFF7D8FD0134E4B2BC42CED34C
:103DAC0018F0070208D1244B1B78DBB2012B36D05C
:103DBC0001200AB0BDE8F081002300930193A8EB29
:103DCC0002013144684600F06DFD03A96846FFF717
:103DDC007FFF04A901A8FFF77BFFFFF721F9022160
:103DEC0003A8FFF70BF902A9FFF76AFFBDF814301F
:103DFC00ADF818306B4603CBCDF81A00CDF81E1079
:103E0C00029BCDF822300E2206A90C48FFF7F3FCDA
:103E1C000E2306AA0A490220FFF796FDC3E7094BB9
:103E2C001A68D36843F08003D360034B02221A70E4
:103E3C00BEE700BF1C4B0008F0020020F20200207D
:103E4C00344B00089800002030B589B0002404944D
:103E5C0005940694ADF81C400394012508E001225A
:103E6C0004AB19192248FFF71FFD05460134E4B2D3
:103E7C000D2CF4D90E2304AA1E490220FFF764FD71
:103E8C009DF810305A2B03D09DF81130A52B21D161
:103E9C0001A90DF11200FFF71BFF02A90DF116008D
:103EAC00FFF716FF03A90DF11A00FFF711FFFFF73B
:103EBC00B7F8022101A8FFF7A1F8039B984211D093
:103ECC0000231A460C490420FFF73EFD0025284626
:103EDC0009B030BD00231A4608490220FFF734FD13
:103EEC000025F4E70DF1120000F010F9EFE700BF28
:103EFC00F8060020384B0008684B00083C4B0008C3
:103F0C002DE9F04383B006468846CCB223460246E0
:103F1C0046490820FFF718FD002300930193B8F1E0
:103F2C00070F2BD910238DF80030B8F1FF0F05D9EE
:103F3C00C8F3032343F010038DF800308DF80140D3
:103F4C003368CDF80230B388ADF8063008216846E6
:103F5C00FFF7D0FE08236A4635490220FFF7F4FC30
:103F6C00A8F10607334B83FB07233B44FF17C7EB32
:103F7C00A3075FFA87F9002401250EE08DF80040B5
:103F8C00424631460DF1010000F08CFC08216846D8
:103F9C00FFF7B0FE2AE00134E4B24C4520D245F0E4
:103FAC0020038DF80030C4EBC4030633F218F35829
:103FBC00CDF8013091889379ADF805108DF8073064
:103FCC0008216846FFF796FE08236A461849022026
:103FDC00FFF7BAFC0135EDB20F2DDCD90025DAE77D
:103FEC00FFB2C7EBC707BB1D984502D103B0BDE8B4
:103FFC00F08345F020058DF800500023CDF80130FA
:10400C000193B91DA8EB0702063A31440DF10100EA
:10401C0000F048FC08236A4605490220FFF794FC8F
:10402C0008216846FFF766FEE0E700BF844B0008F6
:10403C009C4B00089324499238B541281CD824285D
:10404C0014D3A0F124031D2B32D8DFE803F019534D
:10405C003131313131313131313131313131313144
:10406C00313131313131313131312641A0F110034F
:10407C00DBB2032B1CD803E0782801D07F2817D1A2
:10408C00204B7F2283F804215A7883F8052183F88A
:10409C0006010322A3F804220AE01A4B5A78403294
:1040AC0083F804219A7883F80521DA7883F80621BD
:1040BC00144C04F5827594F804322A4612490220F5
:1040CC00FFF742FCB4F804122846FFF719FF38BD7D
:1040DC000C4B5A78403283F804219A7883F80521E6
:1040EC00DA7883F806211A7983F807210422A3F8D9
:1040FC000422DDE7034B302283F804210122A3F8CC
:10410C000422D5E710130020A84B000870B5044614
:10411C0003781B09012B19D0022B36D0A3B92E4DD5
:10412C00FF220021284600F090FB214611F8012BBC
:10413C0002F00F02A5F8FF20284600F0B3FBB5F8FB
:10414C00FF10284600F0AEFA002070BD234E354615
:10415C00012305F8013BFF220021284600F075FBE6
:10416C0023781B0203F4706362781344A6F80031C1
:10417C000623A6F80231D4F80230C6F80130E388E1
:10418C00AB802520FFF758FFDEE7144AB2F8023166
:10419C00D91DB2F8002191420CDB104D5819D21ADE
:1041AC00611C013000F07EFBB5F80011681C00F0BA
:1041BC0079FAC9E7094A1344D0F80110C3F8011081
:1041CC00B0F80500E179A3F80500D971B2F8023115
:1041DC000733A2F80231B7E71113002010130020A7
:1041EC0010B582B004460023072B0DD8144A52F8A0
:1041FC003320A24201D00133F6E7114A02EBC3038C
:10420C005B689847012300E00023B4F1663F02D0BD
:10421C0043B102B010BD00231A460A490420FFF72F
:10422C0093FBF6E7019301A92046FFF749FD042310
:10423C000DEB030204491846FFF786FBE9E700BFC4
:10424C00A8000020B44B0008D04B00082DE9F04129
:10425C0000AF324B4FF058521A61597F01F10902ED
:10426C0002F4FC72ADEB020D6D46DA7EB2FBF1F29C
:10427C0036218DF80010187F431C8DF801309042C8
:10428C0021D2264B5E685B7F03FB0066002408E0AE
:10429C00A1000231294456F8040BFFF711FD01343B
:1042AC00E4B21E4B597FB4EB910FF1D31A7F01325C
:1042BC001A774FF058525A6102312846FFF720FE08
:1042CC00BD46BDE8F081154BDE7E5B7FB6FBF3F19E
:1042DC0003FB116111F0FF0FF2D01049496803FB89
:1042EC00001802FB03F3DBB2F61AF6B20024B4EBAF
:1042FC00960F09D2A1000231294458F8040BFFF79C
:10430C00DFFC0134E4B2F2E7044B4FF05C525A612B
:10431C00B11C2846FFF7F4FDD2E700BF18150020AA
:10432C0070B584B0134B0093002301930293039355
:10433C00114C2668114B23612589B3B2ED1AADB22D
:10434C00FEF76EFEA9083046FEF758FE01A9FFF7EE
:10435C00B7FC02A92068FFF7B3FC03A9A068FFF71C
:10436C00AFFC4FF06633636110216846FFF7C8FD60
:10437C0004B070BD31010205181500200502013191
:10438C0010B584B0284B4FF050521A61274A029254
:10439C00002203921A771B7E002B36D0224B9B7E79
:1043AC00012B38D0204A5068D37E18445060034407
:1043BC009268934204D9121A1B4BDA7601229A7630
:1043CC0003A9FFF77DFC184CE37E8DF80B3004231A
:1043DC000DF10B0216490220FFF7B6FA4FF05853B5
:1043EC006361A068636801A9C01AFFF769FC042324
:1043FC000DEB03020F490820FFF7A6FA08210DEB7D
:10440C000100FFF77DFD04B010BD03A9064B5868F1
:10441C00FFF756FCD7E700231A4607490220FFF79F
:10442C0093FAFFF77DFFEEE7181500203400140017
:10443C00104C0008284C0008F04B000810B584B054
:10444C001B4B01930023029303931A4B1A4A5A6194
:10445C001A615B7E022B03D0012B11D004B010BD6E
:10446C00144C02A92068FFF72BFC03A9A068FFF7E6
:10447C0027FC012363760C2101A8FFF741FDEDE732
:10448C000C4B1B7E012B06D000231A460B49022035
:10449C00FFF75AFAE2E700231A4609490220FFF710
:1044AC0053FA044B00221A76FFF76AFFD6E700BFD7
:1044BC003103FF001815002000FF0331804C000869
:1044CC006C4C000810B584B0002303931A4A019277
:1044DC0002931A4B1A4A1A615A611B7EE3B9174BA5
:1044EC001C685B7B04EB83240123164A16490220CB
:1044FC00FFF72AFA03A92046FFF7E2FB042303AADD
:10450C0012490220FFF720FA039B0293082101A80D
:10451C00FFF7F6FC04B010BD084A537B127B9342A4
:10452C0007D00133DBB2054A5373146804EB8324C0
:10453C00DAE7FFF783FFEDE73101FF0018150020E4
:10454C0000FF013125150020944C0008A44C0008F4
:10455C0000B583B00D4B4FF05C521A6137228DF8C9
:10456C0007201B7E53B1094B094A5A6101210DF1F9
:10457C000700FFF7C5FC03B05DF804FB1A460549BC
:10458C000420FFF7E1F9FFF7FBFEF4E71815002014
:10459C0002020131B44C000800B583B00D4B1B7EF8
:1045AC0083B10C4B0C4A1A610C4A00920022019206
:1045BC004FF050525A6104216846FFF7A1FC03B03A
:1045CC005DF804FB1A4606490420FFF7BDF9FFF716
:1045DC00D7FEF4E718150020030201313101020364
:1045EC00D84C0008F0B583B000AF6E461D4B1E4A88
:1045FC001A611B7E83B11D4B3B6000237B60194904
:10460C00CA7E940802F0FC02073202F4FC72ADEB95
:10461C00020D6D464A680EE01A4615490420FFF754
:10462C0093F9FFF7ADFEB54618E052F8041B45F8B8
:10463C00231001339BB29C42F7D8FEF7F1FC2146C4
:10464C002846FEF7DBFC391DFFF73AFB054B094A00
:10465C005A6108213846FFF753FCB5460C37BD4666
:10466C00F0BD00BF18150020020201313101020219
:10467C00F84C000803020131084B00225A73084918
:10468C0019609A6059601A731A615A611A768021FE
:10469C00D976022159769A76704700BF18150020FA
:1046AC000028000810B50446002200E00132214B1E
:1046BC009A42FBDDCBB222461F490820FFF744F992
:1046CC001E4BDB7C227840339A4225D0302A2BD0EB
:1046DC003E2A29D07F2A02D1A378782B24D0184CDB
:1046EC000123224617490420FFF72EF9224612F81F
:1046FC001E390133DBB29377022B06D80F4B002205
:10470C001A761869FFF76CFD0EE000231A460E4965
:10471C000420FFF719F907E0742A06D0074C6069EA
:10472C00FFF75EFD0123237610BDA278034B5A7769
:10473C00F4E700BF3F190100144D000818150020C4
:10474C0036150020284D0008304D000810B582B0F9
:10475C0000240194184B01E0043404331A68B2F1BC
:10476C00FF3FF9D101A92046FFF7AAFA04230DEB6C
:10477C00030212490220FFF7E7F804F1006303F586
:10478C0020530F4A9360C4F387238DF80330C4F38E
:10479C00090414B101338DF8033001230DF1030228
:1047AC0008490220FFF7D0F89DF80320044B1A7338
:1047BC00FFF788FE02B010BD00280008484D000825
:1047CC00181500205C4D000808B500231A46044952
:1047DC000220FFF7B9F8FFF74FFFFFF7B7FF08BD4F
:1047EC00844D00080B480C490C4A002302E0D458B5
:1047FC00C4500433C4188C42F9D3094A094C002321
:10480C0001E013600432A242FBD300F027F8FEF75C
:10481C0011FC704700000020E8000020CC4D00087F
:10482C00E800002038150020FEE710B501390244DD
:10483C00904201D1002005E0037811F8014FA3420A
:10484C0001D0181B10BD0130F2E70346024493421D
:10485C0000D1704703F8011BF9E7000070B5002682
:10486C000C4D0D4C641BA410A64209D100F028F885
:10487C0000260A4D0A4C641BA410A64205D170BD3B
:10488C0055F8043B98470136EEE755F8043B98473A
:10489C000136F2E7C44D0008C44D0008C44D0008B1
:1048AC00C84D00080A44914200F1FF3300D1704713
:1048BC0010B511F8014B914203F8014FF9D110BD1D
:1048CC00F8B500BFF8BC08BC9E467047F8B500BFF1
:0848DC00F8BC08BC9E467047C1
:1048E40075736520226C6F67207365742F63616E26
:1048F40063656C2078782220746F20736574206C53
:104904006F67206C6576656C0D0A00007573652011
:10491400226D656D6F72792072656164204646462A
:1049240046464646462220746F2072656164206DB7
:10493400656D6F72792C20737570706F727420328C
:1049440020616464726573730D0A00007368656C9A
:104954006C2073757070706F727420636F6D6D610D
:104964006D6E64733A0D0A002020202000000000C0
:1049740073756220636F6D6D616E64203A00000090
:104984000D0A0000616464726573203A200000001F
:1049940064617461203A2000746865206164647203
:1049A400657373206973206E6F7420696E20666C62
:1049B400617368206F722072616D2072616E676529
:1049C400202C74727920746F2075736520227265AF
:1049D400676973746572207265616422200D0A0030
:1049E400636F6D6D616E64206E6F7420666F756E9B
:1049F40064203A007468652070616765207374618F
:104A0400727420616464726573732069732000009A
:104A1400777269746520696E707574206973206992
:104A24006C6C6567616C0D0A000000007468652099
:104A34007772697465206164647265737320697345
:104A440020696C6C6567616C200D0A00666C61738B
:104A5400685F6572617365206661696C200D0A0088
:104A64006C6F670063616E63656C0000736574004E
:104A74007570646174655F617070000075647300C3
:104A84006D656D6F7279000077726974650000005E
:104A9400726561640000000068656C7000000000CD
:104AA400696E69745F4853455F535953434C4B5F78
:104AB40037324D485A206661696C2E2E2E2E2E2ECA
:104AC4002E2E2E2E2E2E2E2E2E2E2E2E2E2E2E2E02
:104AD4000D0A00004E4557204150502072756E6EED
:104AE400696E672E2E2E2E2E2E2E2E2E2E2E2E2E2E
:104AF4002E2E2E2E2E2E2E2E2E0D0A007368656C51
:104B04006C203E007368656C6C2073746172740D64
:104B14000A0000000820080075617274325F636F38
:104B24006D6D756E69636174655F74780000000073
:104B34007478200072782000727820646174612097
:104B440068617665206E6F7420686176652072698D
:104B5400676874206672616D652068656164200D04
:104B64000A000000746865206672616D65206372D6
:104B7400632069732077726F6E670D0A000000006E
:104B840063616E5F736572766963655F7265737086
:104B94006F6E73652000000063616E206672616D44
:104BA40065000000726573706F6E7365203A0000D3
:104BB4000D0A0D0A646F776E6C6F6164206170700A
:104BC4002073756365657373000000006E6F742055
:104BD400666F756E64207570646174655F61707072
:104BE4002066756E6374696F6E000000646F776E83
:104BF4006C6F6164206170702066696E6973682CE3
:104C04007374617274206372630D0A00707265209C
:104C1400646F776E6C6F6164206164647265737332
:104C2400200000002D2D2D2D2D2D2D2D2D2D2D2D44
:104C34002D2D2D2D2D2D2D2D2D2D646F776E6C6F1B
:104C4400616420726573742073697A652D2D2D2D2E
:104C54002D2D2D2D2D2D2D2D2D2D2D2D2D2D2D2D80
:104C64002D2D2D2D2D3A2000657261736520617004
:104C74007020737563636573730D0A0065726173E5
:104C84006520617070206661696C0D0A0000000087
:104C9400657261736520636F756E74200000000097
:104CA40065726173652061646472657373200000CA
:104CB400333720736572766963652066696E69733C
:104CC4006820646F776E6C6F6164206661696C2024
:104CD40000000000626F6F746C6F6164657220691C
:104CE4006E7374616C6C20617070206661696C20F5
:104CF40000000000333120736572766963652063B8
:104D0400726320636865636B206661696C200000D0
:104D14007570646174655F6170705F656E747279DB
:104D2400200000007265747279000000726574726C
:104D34007920206661696C6564202E2E2E2E2E2E1D
:104D44000D0A0000746865206170702073697A65CB
:104D54002069733A20000000626F6F746C6F6164A5
:104D64006572206E65656420657261736520626C8E
:104D74006F636B20636F756E742069733A20000053
:104D840073746172742075706461746520617070ED
:104D94002C20676574206170702073697A65200027
:104DA4007000002048000020380000202800002067
:084DB4000000002000000000D7
:084DBC0050DBFF7F0100000045
:044DC4004129000879
:044DC8001D29000899
:104DCC00644A0008292B000820000020180000204D
:104DDC000000000000000000684A0008B52C000824
:104DEC00704A0008D92C0008744A0008D5470008FE
:104DFC000000000000000000804A0008FD2C0008A4
:104E0C000000000000000000844A00083D2B000850
:104E1C00680000206000002000000000000000007E
:104E2C008C4A0008192F0008944A0008F92B000836
:104E3C009C4A0008512B00080000000000000000F4
:104E4C0000200240083002400030024014100240A2
:104E5C0000A24A0400100240004400400038014007
:104E6C00000000000102030400FF0131D1440008DE
:104E7C0000FF03314944000803020131A545000835
:104E8C0002020131F1450008050201312D430008F1
:104E9C00000000348D430008000000365942000821
:084EAC00000000375D4500081D
:04000005080047F1B7
:00000001FF
